{
  "contractName": "Interface",
  "abi": [
    {
      "constant": false,
      "inputs": [
        {
          "name": "_to",
          "type": "address"
        }
      ],
      "name": "transferTo",
      "outputs": [
        {
          "name": "",
          "type": "uint256"
        }
      ],
      "payable": true,
      "stateMutability": "payable",
      "type": "function"
    },
    {
      "constant": false,
      "inputs": [],
      "name": "offer",
      "outputs": [
        {
          "name": "",
          "type": "uint256"
        }
      ],
      "payable": false,
      "stateMutability": "nonpayable",
      "type": "function"
    },
    {
      "constant": false,
      "inputs": [
        {
          "name": "_to",
          "type": "address"
        }
      ],
      "name": "takeAway",
      "outputs": [
        {
          "name": "",
          "type": "uint256"
        }
      ],
      "payable": false,
      "stateMutability": "nonpayable",
      "type": "function"
    }
  ],
  "bytecode": "0x606060405261000c610071565b604051809103906000f080151561002257600080fd5b6000806101000a81548173ffffffffffffffffffffffffffffffffffffffff021916908373ffffffffffffffffffffffffffffffffffffffff160217905550341561006c57600080fd5b610081565b6040516107468061056983390190565b6104d9806100906000396000f300606060405260043610610057576000357c0100000000000000000000000000000000000000000000000000000000900463ffffffff16806351a783be1461005c578063a03fa7e3146100a9578063c028df06146100eb575b600080fd5b341561006757600080fd5b610093600480803573ffffffffffffffffffffffffffffffffffffffff16906020019091905050610114565b6040518082815260200191505060405180910390f35b6100d5600480803573ffffffffffffffffffffffffffffffffffffffff16906020019091905050610242565b6040518082815260200191505060405180910390f35b34156100f657600080fd5b6100fe610357565b6040518082815260200191505060405180910390f35b6000806000809054906101000a900473ffffffffffffffffffffffffffffffffffffffff1673ffffffffffffffffffffffffffffffffffffffff16639501f126338560016000604051602001526040518463ffffffff167c0100000000000000000000000000000000000000000000000000000000028152600401808473ffffffffffffffffffffffffffffffffffffffff1673ffffffffffffffffffffffffffffffffffffffff1681526020018373ffffffffffffffffffffffffffffffffffffffff1673ffffffffffffffffffffffffffffffffffffffff168152602001821515151581526020019350505050602060405180830381600087803b151561021c57600080fd5b6102c65a03f1151561022d57600080fd5b50505060405180519050905080915050919050565b60008060009054906101000a900473ffffffffffffffffffffffffffffffffffffffff1673ffffffffffffffffffffffffffffffffffffffff1663a5f2a1523384346040518463ffffffff167c0100000000000000000000000000000000000000000000000000000000028152600401808473ffffffffffffffffffffffffffffffffffffffff1673ffffffffffffffffffffffffffffffffffffffff1681526020018373ffffffffffffffffffffffffffffffffffffffff1673ffffffffffffffffffffffffffffffffffffffff1681526020018281526020019350505050600060405180830381600087803b151561033b57600080fd5b6102c65a03f1151561034c57600080fd5b505050349050919050565b6000806000809054906101000a900473ffffffffffffffffffffffffffffffffffffffff1673ffffffffffffffffffffffffffffffffffffffff16639501f126600033600080604051602001526040518463ffffffff167c0100000000000000000000000000000000000000000000000000000000028152600401808473ffffffffffffffffffffffffffffffffffffffff1681526020018373ffffffffffffffffffffffffffffffffffffffff1673ffffffffffffffffffffffffffffffffffffffff168152602001821515151581526020019350505050602060405180830381600087803b151561044957600080fd5b6102c65a03f1151561045a57600080fd5b5050506040518051905090503373ffffffffffffffffffffffffffffffffffffffff166108fc829081150290604051600060405180830381858888f1935050505015156104a657600080fd5b80915050905600a165627a7a72305820742d02828a4e71ac112cb56540d9742ac6ecc91ed3853838a50787b1a8cbc85500296060604052341561000f57600080fd5b6107288061001e6000396000f300606060405260043610610057576000357c0100000000000000000000000000000000000000000000000000000000900463ffffffff1680639377d7111461005c5780639501f126146100f9578063a5f2a15214610170575b600080fd5b341561006757600080fd5b61007d60048080359060200190919050506101d1565b604051808473ffffffffffffffffffffffffffffffffffffffff1673ffffffffffffffffffffffffffffffffffffffff1681526020018373ffffffffffffffffffffffffffffffffffffffff1673ffffffffffffffffffffffffffffffffffffffff168152602001828152602001935050505060405180910390f35b341561010457600080fd5b61015a600480803573ffffffffffffffffffffffffffffffffffffffff1690602001909190803573ffffffffffffffffffffffffffffffffffffffff16906020019091908035151590602001909190505061024a565b6040518082815260200191505060405180910390f35b341561017b57600080fd5b6101cf600480803573ffffffffffffffffffffffffffffffffffffffff1690602001909190803573ffffffffffffffffffffffffffffffffffffffff16906020019091908035906020019091905050610544565b005b6000818154811015156101e057fe5b90600052602060002090600302016000915090508060000160009054906101000a900473ffffffffffffffffffffffffffffffffffffffff16908060010160009054906101000a900473ffffffffffffffffffffffffffffffffffffffff16908060020154905083565b6000806000831561040557600091505b600080549050821015610400578573ffffffffffffffffffffffffffffffffffffffff1660008381548110151561028d57fe5b906000526020600020906003020160000160009054906101000a900473ffffffffffffffffffffffffffffffffffffffff1673ffffffffffffffffffffffffffffffffffffffff1614801561034d57508473ffffffffffffffffffffffffffffffffffffffff1660008381548110151561030357fe5b906000526020600020906003020160010160009054906101000a900473ffffffffffffffffffffffffffffffffffffffff1673ffffffffffffffffffffffffffffffffffffffff16145b156103f35760008281548110151561036157fe5b906000526020600020906003020160020154905060008281548110151561038457fe5b9060005260206000209060030201600080820160006101000a81549073ffffffffffffffffffffffffffffffffffffffff02191690556001820160006101000a81549073ffffffffffffffffffffffffffffffffffffffff02191690556002820160009055505080925061053b565b818060010192505061025a565b61053a565b600091505b600080549050821015610539578473ffffffffffffffffffffffffffffffffffffffff1660008381548110151561043d57fe5b906000526020600020906003020160010160009054906101000a900473ffffffffffffffffffffffffffffffffffffffff1673ffffffffffffffffffffffffffffffffffffffff16141561052c5760008281548110151561049a57fe5b90600052602060002090600302016002015490506000828154811015156104bd57fe5b9060005260206000209060030201600080820160006101000a81549073ffffffffffffffffffffffffffffffffffffffff02191690556001820160006101000a81549073ffffffffffffffffffffffffffffffffffffffff02191690556002820160009055505080925061053b565b818060010192505061040a565b5b5b50509392505050565b600080548060010182816105589190610655565b916000526020600020906003020160006060604051908101604052808773ffffffffffffffffffffffffffffffffffffffff1681526020018673ffffffffffffffffffffffffffffffffffffffff16815260200185815250909190915060008201518160000160006101000a81548173ffffffffffffffffffffffffffffffffffffffff021916908373ffffffffffffffffffffffffffffffffffffffff16021790555060208201518160010160006101000a81548173ffffffffffffffffffffffffffffffffffffffff021916908373ffffffffffffffffffffffffffffffffffffffff16021790555060408201518160020155505050505050565b815481835581811511610682576003028160030283600052602060002091820191016106819190610687565b5b505050565b6106f991905b808211156106f557600080820160006101000a81549073ffffffffffffffffffffffffffffffffffffffff02191690556001820160006101000a81549073ffffffffffffffffffffffffffffffffffffffff021916905560028201600090555060030161068d565b5090565b905600a165627a7a723058209553d75552fe9d513f432e937661267f005d910c8dbbaa00eb0782b27414b83c0029",
  "source": "pragma solidity ^0.4.18;\n\nimport \"./Storage.sol\";\nimport \"./SafeMath.sol\";\n\ncontract Interface {\n    using SafeMath for uint256;\n    \n    Storage store = new Storage();\n    \n    function transferTo(address _to) payable public returns(uint256) {\n        store.transferTo(msg.sender, _to, msg.value);\n        return msg.value;\n    }\n    \n    function offer() public returns (uint256) {\n        uint256 _amount = store.offer(0, msg.sender, false);\n        msg.sender.transfer(_amount);\n        return _amount;\n    }\n    \n    function takeAway(address _to) public returns(uint256){\n        uint256 _amount = store.offer(msg.sender, _to, true);\n        return _amount;\n    }\n    \n}\n",
  "sourcePath": "/home/userpc/truffleSmartContracts/SmartContractTest/contracts/Interface.sol",
  "compiler": {
    "name": "solc",
    "version": "0.4.19+commit.c4cbbb05.Emscripten.clang"
  },
  "schemaVersion": "2.0.0",
  "updatedAt": "2018-03-30T10:19:13.001Z"
}